{
  "_format": "hh-sol-artifact-1",
  "contractName": "AlchemonNft",
  "sourceName": "contracts/AlchemonNft.sol",
  "abi": [
    {
      "inputs": [],
      "stateMutability": "nonpayable",
      "type": "constructor"
    },
    {
      "anonymous": false,
      "inputs": [
        {
          "indexed": true,
          "internalType": "address",
          "name": "owner",
          "type": "address"
        },
        {
          "indexed": true,
          "internalType": "address",
          "name": "approved",
          "type": "address"
        },
        {
          "indexed": true,
          "internalType": "uint256",
          "name": "tokenId",
          "type": "uint256"
        }
      ],
      "name": "Approval",
      "type": "event"
    },
    {
      "anonymous": false,
      "inputs": [
        {
          "indexed": true,
          "internalType": "address",
          "name": "owner",
          "type": "address"
        },
        {
          "indexed": true,
          "internalType": "address",
          "name": "operator",
          "type": "address"
        },
        {
          "indexed": false,
          "internalType": "bool",
          "name": "approved",
          "type": "bool"
        }
      ],
      "name": "ApprovalForAll",
      "type": "event"
    },
    {
      "anonymous": false,
      "inputs": [
        {
          "indexed": true,
          "internalType": "address",
          "name": "previousOwner",
          "type": "address"
        },
        {
          "indexed": true,
          "internalType": "address",
          "name": "newOwner",
          "type": "address"
        }
      ],
      "name": "OwnershipTransferred",
      "type": "event"
    },
    {
      "anonymous": false,
      "inputs": [
        {
          "indexed": true,
          "internalType": "address",
          "name": "from",
          "type": "address"
        },
        {
          "indexed": true,
          "internalType": "address",
          "name": "to",
          "type": "address"
        },
        {
          "indexed": true,
          "internalType": "uint256",
          "name": "tokenId",
          "type": "uint256"
        }
      ],
      "name": "Transfer",
      "type": "event"
    },
    {
      "inputs": [],
      "name": "PRICE",
      "outputs": [
        {
          "internalType": "uint256",
          "name": "",
          "type": "uint256"
        }
      ],
      "stateMutability": "view",
      "type": "function"
    },
    {
      "inputs": [
        {
          "internalType": "address",
          "name": "to",
          "type": "address"
        },
        {
          "internalType": "uint256",
          "name": "tokenId",
          "type": "uint256"
        }
      ],
      "name": "approve",
      "outputs": [],
      "stateMutability": "nonpayable",
      "type": "function"
    },
    {
      "inputs": [
        {
          "internalType": "address",
          "name": "owner",
          "type": "address"
        }
      ],
      "name": "balanceOf",
      "outputs": [
        {
          "internalType": "uint256",
          "name": "",
          "type": "uint256"
        }
      ],
      "stateMutability": "view",
      "type": "function"
    },
    {
      "inputs": [
        {
          "internalType": "uint256",
          "name": "parent1Id",
          "type": "uint256"
        },
        {
          "internalType": "uint256",
          "name": "parent2Id",
          "type": "uint256"
        }
      ],
      "name": "breed",
      "outputs": [],
      "stateMutability": "nonpayable",
      "type": "function"
    },
    {
      "inputs": [
        {
          "internalType": "uint256",
          "name": "tokenId",
          "type": "uint256"
        },
        {
          "internalType": "uint256",
          "name": "generation",
          "type": "uint256"
        }
      ],
      "name": "generateMetadata",
      "outputs": [
        {
          "internalType": "string",
          "name": "",
          "type": "string"
        }
      ],
      "stateMutability": "pure",
      "type": "function"
    },
    {
      "inputs": [
        {
          "internalType": "uint256",
          "name": "tokenId",
          "type": "uint256"
        }
      ],
      "name": "getApproved",
      "outputs": [
        {
          "internalType": "address",
          "name": "",
          "type": "address"
        }
      ],
      "stateMutability": "view",
      "type": "function"
    },
    {
      "inputs": [
        {
          "internalType": "address",
          "name": "owner",
          "type": "address"
        },
        {
          "internalType": "address",
          "name": "operator",
          "type": "address"
        }
      ],
      "name": "isApprovedForAll",
      "outputs": [
        {
          "internalType": "bool",
          "name": "",
          "type": "bool"
        }
      ],
      "stateMutability": "view",
      "type": "function"
    },
    {
      "inputs": [
        {
          "internalType": "uint256",
          "name": "_count",
          "type": "uint256"
        }
      ],
      "name": "mintGenesis",
      "outputs": [],
      "stateMutability": "payable",
      "type": "function"
    },
    {
      "inputs": [],
      "name": "name",
      "outputs": [
        {
          "internalType": "string",
          "name": "",
          "type": "string"
        }
      ],
      "stateMutability": "view",
      "type": "function"
    },
    {
      "inputs": [],
      "name": "owner",
      "outputs": [
        {
          "internalType": "address",
          "name": "",
          "type": "address"
        }
      ],
      "stateMutability": "view",
      "type": "function"
    },
    {
      "inputs": [
        {
          "internalType": "uint256",
          "name": "tokenId",
          "type": "uint256"
        }
      ],
      "name": "ownerOf",
      "outputs": [
        {
          "internalType": "address",
          "name": "",
          "type": "address"
        }
      ],
      "stateMutability": "view",
      "type": "function"
    },
    {
      "inputs": [],
      "name": "renounceOwnership",
      "outputs": [],
      "stateMutability": "nonpayable",
      "type": "function"
    },
    {
      "inputs": [
        {
          "internalType": "address",
          "name": "from",
          "type": "address"
        },
        {
          "internalType": "address",
          "name": "to",
          "type": "address"
        },
        {
          "internalType": "uint256",
          "name": "tokenId",
          "type": "uint256"
        }
      ],
      "name": "safeTransferFrom",
      "outputs": [],
      "stateMutability": "nonpayable",
      "type": "function"
    },
    {
      "inputs": [
        {
          "internalType": "address",
          "name": "from",
          "type": "address"
        },
        {
          "internalType": "address",
          "name": "to",
          "type": "address"
        },
        {
          "internalType": "uint256",
          "name": "tokenId",
          "type": "uint256"
        },
        {
          "internalType": "bytes",
          "name": "data",
          "type": "bytes"
        }
      ],
      "name": "safeTransferFrom",
      "outputs": [],
      "stateMutability": "nonpayable",
      "type": "function"
    },
    {
      "inputs": [
        {
          "internalType": "address",
          "name": "operator",
          "type": "address"
        },
        {
          "internalType": "bool",
          "name": "approved",
          "type": "bool"
        }
      ],
      "name": "setApprovalForAll",
      "outputs": [],
      "stateMutability": "nonpayable",
      "type": "function"
    },
    {
      "inputs": [
        {
          "internalType": "bytes4",
          "name": "interfaceId",
          "type": "bytes4"
        }
      ],
      "name": "supportsInterface",
      "outputs": [
        {
          "internalType": "bool",
          "name": "",
          "type": "bool"
        }
      ],
      "stateMutability": "view",
      "type": "function"
    },
    {
      "inputs": [],
      "name": "symbol",
      "outputs": [
        {
          "internalType": "string",
          "name": "",
          "type": "string"
        }
      ],
      "stateMutability": "view",
      "type": "function"
    },
    {
      "inputs": [
        {
          "internalType": "uint256",
          "name": "index",
          "type": "uint256"
        }
      ],
      "name": "tokenByIndex",
      "outputs": [
        {
          "internalType": "uint256",
          "name": "",
          "type": "uint256"
        }
      ],
      "stateMutability": "view",
      "type": "function"
    },
    {
      "inputs": [
        {
          "internalType": "address",
          "name": "owner",
          "type": "address"
        },
        {
          "internalType": "uint256",
          "name": "index",
          "type": "uint256"
        }
      ],
      "name": "tokenOfOwnerByIndex",
      "outputs": [
        {
          "internalType": "uint256",
          "name": "",
          "type": "uint256"
        }
      ],
      "stateMutability": "view",
      "type": "function"
    },
    {
      "inputs": [
        {
          "internalType": "uint256",
          "name": "tokenId",
          "type": "uint256"
        }
      ],
      "name": "tokenURI",
      "outputs": [
        {
          "internalType": "string",
          "name": "",
          "type": "string"
        }
      ],
      "stateMutability": "view",
      "type": "function"
    },
    {
      "inputs": [
        {
          "internalType": "address",
          "name": "_owner",
          "type": "address"
        }
      ],
      "name": "tokensOfOwner",
      "outputs": [
        {
          "internalType": "uint256[]",
          "name": "",
          "type": "uint256[]"
        }
      ],
      "stateMutability": "view",
      "type": "function"
    },
    {
      "inputs": [],
      "name": "totalSupply",
      "outputs": [
        {
          "internalType": "uint256",
          "name": "",
          "type": "uint256"
        }
      ],
      "stateMutability": "view",
      "type": "function"
    },
    {
      "inputs": [
        {
          "internalType": "address",
          "name": "from",
          "type": "address"
        },
        {
          "internalType": "address",
          "name": "to",
          "type": "address"
        },
        {
          "internalType": "uint256",
          "name": "tokenId",
          "type": "uint256"
        }
      ],
      "name": "transferFrom",
      "outputs": [],
      "stateMutability": "nonpayable",
      "type": "function"
    },
    {
      "inputs": [
        {
          "internalType": "address",
          "name": "newOwner",
          "type": "address"
        }
      ],
      "name": "transferOwnership",
      "outputs": [],
      "stateMutability": "nonpayable",
      "type": "function"
    },
    {
      "inputs": [],
      "name": "withdraw",
      "outputs": [],
      "stateMutability": "payable",
      "type": "function"
    }
  ],
  "bytecode": "0x60806040523480156200001157600080fd5b506040518060400160405280600881526020017f416c6368656d6f6e0000000000000000000000000000000000000000000000008152506040518060400160405280600481526020017f416c63680000000000000000000000000000000000000000000000000000000081525081600090816200008f919062000412565b508060019081620000a1919062000412565b505050620000c4620000b8620000ca60201b60201c565b620000d260201b60201c565b620004f9565b600033905090565b6000600b60009054906101000a900473ffffffffffffffffffffffffffffffffffffffff16905081600b60006101000a81548173ffffffffffffffffffffffffffffffffffffffff021916908373ffffffffffffffffffffffffffffffffffffffff1602179055508173ffffffffffffffffffffffffffffffffffffffff168173ffffffffffffffffffffffffffffffffffffffff167f8be0079c531659141344cd1fd0a4f28419497f9722a3daafe3b4186f6b6457e060405160405180910390a35050565b600081519050919050565b7f4e487b7100000000000000000000000000000000000000000000000000000000600052604160045260246000fd5b7f4e487b7100000000000000000000000000000000000000000000000000000000600052602260045260246000fd5b600060028204905060018216806200021a57607f821691505b60208210810362000230576200022f620001d2565b5b50919050565b60008190508160005260206000209050919050565b60006020601f8301049050919050565b600082821b905092915050565b6000600883026200029a7fffffffffffffffffffffffffffffffffffffffffffffffffffffffffffffffff826200025b565b620002a686836200025b565b95508019841693508086168417925050509392505050565b6000819050919050565b6000819050919050565b6000620002f3620002ed620002e784620002be565b620002c8565b620002be565b9050919050565b6000819050919050565b6200030f83620002d2565b620003276200031e82620002fa565b84845462000268565b825550505050565b600090565b6200033e6200032f565b6200034b81848462000304565b505050565b5b8181101562000373576200036760008262000334565b60018101905062000351565b5050565b601f821115620003c2576200038c8162000236565b62000397846200024b565b81016020851015620003a7578190505b620003bf620003b6856200024b565b83018262000350565b50505b505050565b600082821c905092915050565b6000620003e760001984600802620003c7565b1980831691505092915050565b6000620004028383620003d4565b9150826002028217905092915050565b6200041d8262000198565b67ffffffffffffffff811115620004395762000438620001a3565b5b62000445825462000201565b6200045282828562000377565b600060209050601f8311600181146200048a576000841562000475578287015190505b620004818582620003f4565b865550620004f1565b601f1984166200049a8662000236565b60005b82811015620004c4578489015182556001820191506020850194506020810190506200049d565b86831015620004e45784890151620004e0601f891682620003d4565b8355505b6001600288020188555050505b505050505050565b614c1980620005096000396000f3fe6080604052600436106101665760003560e01c806370a08231116100d1578063a22cb4651161008a578063d9ecad7b11610064578063d9ecad7b14610555578063dff632431461057e578063e985e9c51461059a578063f2fde38b146105d757610166565b8063a22cb465146104c6578063b88d4fde146104ef578063c87b56dd1461051857610166565b806370a08231146103b4578063715018a6146103f15780638462151c146104085780638d859f3e146104455780638da5cb5b1461047057806395d89b411461049b57610166565b80632f745c59116101235780632f745c591461028d57806330800991146102ca5780633ccfd60b1461030757806342842e0e146103115780634f6ccce71461033a5780636352211e1461037757610166565b806301ffc9a71461016b57806306fdde03146101a8578063081812fc146101d3578063095ea7b31461021057806318160ddd1461023957806323b872dd14610264575b600080fd5b34801561017757600080fd5b50610192600480360381019061018d9190612cf4565b610600565b60405161019f9190612d3c565b60405180910390f35b3480156101b457600080fd5b506101bd610612565b6040516101ca9190612de7565b60405180910390f35b3480156101df57600080fd5b506101fa60048036038101906101f59190612e3f565b6106a4565b6040516102079190612ead565b60405180910390f35b34801561021c57600080fd5b5061023760048036038101906102329190612ef4565b6106ea565b005b34801561024557600080fd5b5061024e610801565b60405161025b9190612f43565b60405180910390f35b34801561027057600080fd5b5061028b60048036038101906102869190612f5e565b61080e565b005b34801561029957600080fd5b506102b460048036038101906102af9190612ef4565b61086e565b6040516102c19190612f43565b60405180910390f35b3480156102d657600080fd5b506102f160048036038101906102ec9190612fb1565b610913565b6040516102fe9190612de7565b60405180910390f35b61030f6109c3565b005b34801561031d57600080fd5b5061033860048036038101906103339190612f5e565b610ac3565b005b34801561034657600080fd5b50610361600480360381019061035c9190612e3f565b610ae3565b60405161036e9190612f43565b60405180910390f35b34801561038357600080fd5b5061039e60048036038101906103999190612e3f565b610b54565b6040516103ab9190612ead565b60405180910390f35b3480156103c057600080fd5b506103db60048036038101906103d69190612ff1565b610bda565b6040516103e89190612f43565b60405180910390f35b3480156103fd57600080fd5b50610406610c91565b005b34801561041457600080fd5b5061042f600480360381019061042a9190612ff1565b610ca5565b60405161043c91906130dc565b60405180910390f35b34801561045157600080fd5b5061045a610d53565b6040516104679190612f43565b60405180910390f35b34801561047c57600080fd5b50610485610d5e565b6040516104929190612ead565b60405180910390f35b3480156104a757600080fd5b506104b0610d88565b6040516104bd9190612de7565b60405180910390f35b3480156104d257600080fd5b506104ed60048036038101906104e8919061312a565b610e1a565b005b3480156104fb57600080fd5b506105166004803603810190610511919061329f565b610e30565b005b34801561052457600080fd5b5061053f600480360381019061053a9190612e3f565b610e92565b60405161054c9190612de7565b60405180910390f35b34801561056157600080fd5b5061057c60048036038101906105779190612fb1565b610ea4565b005b61059860048036038101906105939190612e3f565b6110e1565b005b3480156105a657600080fd5b506105c160048036038101906105bc9190613322565b6111cf565b6040516105ce9190612d3c565b60405180910390f35b3480156105e357600080fd5b506105fe60048036038101906105f99190612ff1565b611263565b005b600061060b826112e6565b9050919050565b60606000805461062190613391565b80601f016020809104026020016040519081016040528092919081815260200182805461064d90613391565b801561069a5780601f1061066f5761010080835404028352916020019161069a565b820191906000526020600020905b81548152906001019060200180831161067d57829003601f168201915b5050505050905090565b60006106af82611360565b6004600083815260200190815260200160002060009054906101000a900473ffffffffffffffffffffffffffffffffffffffff169050919050565b60006106f582610b54565b90508073ffffffffffffffffffffffffffffffffffffffff168373ffffffffffffffffffffffffffffffffffffffff1603610765576040517f08c379a000000000000000000000000000000000000000000000000000000000815260040161075c90613434565b60405180910390fd5b8073ffffffffffffffffffffffffffffffffffffffff166107846113ab565b73ffffffffffffffffffffffffffffffffffffffff1614806107b357506107b2816107ad6113ab565b6111cf565b5b6107f2576040517f08c379a00000000000000000000000000000000000000000000000000000000081526004016107e9906134c6565b60405180910390fd5b6107fc83836113b3565b505050565b6000600880549050905090565b61081f6108196113ab565b8261146c565b61085e576040517f08c379a000000000000000000000000000000000000000000000000000000000815260040161085590613558565b60405180910390fd5b610869838383611501565b505050565b600061087983610bda565b82106108ba576040517f08c379a00000000000000000000000000000000000000000000000000000000081526004016108b1906135ea565b60405180910390fd5b600660008473ffffffffffffffffffffffffffffffffffffffff1673ffffffffffffffffffffffffffffffffffffffff168152602001908152602001600020600083815260200190815260200160002054905092915050565b60606000610920846117fa565b610929846117fa565b60405160200161093a929190613a22565b60405160208183030381529060405290506000610991610959866117fa565b610962846118c8565b61096b876117fa565b60405160200161097d93929190613c40565b6040516020818303038152906040526118c8565b90506000816040516020016109a69190613ce9565b604051602081830303815290604052905080935050505092915050565b6109cb611a2b565b600047905060008111610a13576040517f08c379a0000000000000000000000000000000000000000000000000000000008152600401610a0a90613d57565b60405180910390fd5b60003373ffffffffffffffffffffffffffffffffffffffff1682604051610a3990613da8565b60006040518083038185875af1925050503d8060008114610a76576040519150601f19603f3d011682016040523d82523d6000602084013e610a7b565b606091505b5050905080610abf576040517f08c379a0000000000000000000000000000000000000000000000000000000008152600401610ab690613e09565b60405180910390fd5b5050565b610ade83838360405180602001604052806000815250610e30565b505050565b6000610aed610801565b8210610b2e576040517f08c379a0000000000000000000000000000000000000000000000000000000008152600401610b2590613e9b565b60405180910390fd5b60088281548110610b4257610b41613ebb565b5b90600052602060002001549050919050565b600080610b6083611aa9565b9050600073ffffffffffffffffffffffffffffffffffffffff168173ffffffffffffffffffffffffffffffffffffffff1603610bd1576040517f08c379a0000000000000000000000000000000000000000000000000000000008152600401610bc890613f36565b60405180910390fd5b80915050919050565b60008073ffffffffffffffffffffffffffffffffffffffff168273ffffffffffffffffffffffffffffffffffffffff1603610c4a576040517f08c379a0000000000000000000000000000000000000000000000000000000008152600401610c4190613fc8565b60405180910390fd5b600360008373ffffffffffffffffffffffffffffffffffffffff1673ffffffffffffffffffffffffffffffffffffffff168152602001908152602001600020549050919050565b610c99611a2b565b610ca36000611ae6565b565b60606000610cb283610bda565b905060008167ffffffffffffffff811115610cd057610ccf613174565b5b604051908082528060200260200182016040528015610cfe5781602001602082028036833780820191505090505b50905060005b82811015610d4857610d16858261086e565b828281518110610d2957610d28613ebb565b5b6020026020010181815250508080610d4090614017565b915050610d04565b508092505050919050565b6601c6bf5263400081565b6000600b60009054906101000a900473ffffffffffffffffffffffffffffffffffffffff16905090565b606060018054610d9790613391565b80601f0160208091040260200160405190810160405280929190818152602001828054610dc390613391565b8015610e105780601f10610de557610100808354040283529160200191610e10565b820191906000526020600020905b815481529060010190602001808311610df357829003601f168201915b5050505050905090565b610e2c610e256113ab565b8383611bac565b5050565b610e41610e3b6113ab565b8361146c565b610e80576040517f08c379a0000000000000000000000000000000000000000000000000000000008152600401610e7790613558565b60405180910390fd5b610e8c84848484611d18565b50505050565b6060610e9d82611d74565b9050919050565b808203610ee6576040517f08c379a0000000000000000000000000000000000000000000000000000000008152600401610edd906140ab565b60405180910390fd5b3373ffffffffffffffffffffffffffffffffffffffff16610f0683610b54565b73ffffffffffffffffffffffffffffffffffffffff16148015610f5c57503373ffffffffffffffffffffffffffffffffffffffff16610f4482610b54565b73ffffffffffffffffffffffffffffffffffffffff16145b610f9b576040517f08c379a0000000000000000000000000000000000000000000000000000000008152600401610f9290614117565b60405180910390fd5b6000600d8281548110610fb157610fb0613ebb565b5b906000526020600020906002020160010154600d8481548110610fd757610fd6613ebb565b5b90600052602060002090600202016001015410611027576001600d848154811061100457611003613ebb565b5b9060005260206000209060020201600101546110209190614137565b905061105c565b6001600d838154811061103d5761103c613ebb565b5b9060005260206000209060020201600101546110599190614137565b90505b600061107161106b600c611e86565b83610913565b9050600d604051806040016040528061108a600c611e86565b8152602001848152509080600181540180825580915050600190039060005260206000209060020201600090919091909150600082015181600001556020820151816001015550506110db81611e94565b50505050565b6601c6bf5263400034101561112b576040517f08c379a0000000000000000000000000000000000000000000000000000000008152600401611122906141dd565b60405180910390fd5b60005b818110156111cb57600061114c611145600c611e86565b6000610913565b9050600d6040518060400160405280611165600c611e86565b815260200160008152509080600181540180825580915050600190039060005260206000209060020201600090919091909150600082015181600001556020820151816001015550506111b781611e94565b5080806111c390614017565b91505061112e565b5050565b6000600560008473ffffffffffffffffffffffffffffffffffffffff1673ffffffffffffffffffffffffffffffffffffffff16815260200190815260200160002060008373ffffffffffffffffffffffffffffffffffffffff1673ffffffffffffffffffffffffffffffffffffffff16815260200190815260200160002060009054906101000a900460ff16905092915050565b61126b611a2b565b600073ffffffffffffffffffffffffffffffffffffffff168173ffffffffffffffffffffffffffffffffffffffff16036112da576040517f08c379a00000000000000000000000000000000000000000000000000000000081526004016112d19061426f565b60405180910390fd5b6112e381611ae6565b50565b60007f780e9d63000000000000000000000000000000000000000000000000000000007bffffffffffffffffffffffffffffffffffffffffffffffffffffffff1916827bffffffffffffffffffffffffffffffffffffffffffffffffffffffff19161480611359575061135882611ec4565b5b9050919050565b61136981611fa6565b6113a8576040517f08c379a000000000000000000000000000000000000000000000000000000000815260040161139f90613f36565b60405180910390fd5b50565b600033905090565b816004600083815260200190815260200160002060006101000a81548173ffffffffffffffffffffffffffffffffffffffff021916908373ffffffffffffffffffffffffffffffffffffffff160217905550808273ffffffffffffffffffffffffffffffffffffffff1661142683610b54565b73ffffffffffffffffffffffffffffffffffffffff167f8c5be1e5ebec7d5bd14f71427d1e84f3dd0314c0f7b2291e5b200ac8c7c3b92560405160405180910390a45050565b60008061147883610b54565b90508073ffffffffffffffffffffffffffffffffffffffff168473ffffffffffffffffffffffffffffffffffffffff1614806114ba57506114b981856111cf565b5b806114f857508373ffffffffffffffffffffffffffffffffffffffff166114e0846106a4565b73ffffffffffffffffffffffffffffffffffffffff16145b91505092915050565b8273ffffffffffffffffffffffffffffffffffffffff1661152182610b54565b73ffffffffffffffffffffffffffffffffffffffff1614611577576040517f08c379a000000000000000000000000000000000000000000000000000000000815260040161156e90614301565b60405180910390fd5b600073ffffffffffffffffffffffffffffffffffffffff168273ffffffffffffffffffffffffffffffffffffffff16036115e6576040517f08c379a00000000000000000000000000000000000000000000000000000000081526004016115dd90614393565b60405180910390fd5b6115f38383836001611fe7565b8273ffffffffffffffffffffffffffffffffffffffff1661161382610b54565b73ffffffffffffffffffffffffffffffffffffffff1614611669576040517f08c379a000000000000000000000000000000000000000000000000000000000815260040161166090614301565b60405180910390fd5b6004600082815260200190815260200160002060006101000a81549073ffffffffffffffffffffffffffffffffffffffff02191690556001600360008573ffffffffffffffffffffffffffffffffffffffff1673ffffffffffffffffffffffffffffffffffffffff168152602001908152602001600020600082825403925050819055506001600360008473ffffffffffffffffffffffffffffffffffffffff1673ffffffffffffffffffffffffffffffffffffffff16815260200190815260200160002060008282540192505081905550816002600083815260200190815260200160002060006101000a81548173ffffffffffffffffffffffffffffffffffffffff021916908373ffffffffffffffffffffffffffffffffffffffff160217905550808273ffffffffffffffffffffffffffffffffffffffff168473ffffffffffffffffffffffffffffffffffffffff167fddf252ad1be2c89b69c2b068fc378daa952ba7f163c4a11628f55a4df523b3ef60405160405180910390a46117f58383836001611ff9565b505050565b60606000600161180984611fff565b01905060008167ffffffffffffffff81111561182857611827613174565b5b6040519080825280601f01601f19166020018201604052801561185a5781602001600182028036833780820191505090505b509050600082602001820190505b6001156118bd578080600190039150507f3031323334353637383961626364656600000000000000000000000000000000600a86061a8153600a85816118b1576118b06143b3565b5b04945060008503611868575b819350505050919050565b606060008251036118ea57604051806020016040528060008152509050611a26565b6000604051806060016040528060408152602001614ba460409139905060006003600285516119199190614137565b61192391906143e2565b600461192f9190614413565b67ffffffffffffffff81111561194857611947613174565b5b6040519080825280601f01601f19166020018201604052801561197a5781602001600182028036833780820191505090505b509050600182016020820185865187015b808210156119e6576003820191508151603f8160121c168501518453600184019350603f81600c1c168501518453600184019350603f8160061c168501518453600184019350603f811685015184536001840193505061198b565b5050600386510660018114611a025760028114611a1557611a1d565b603d6001830353603d6002830353611a1d565b603d60018303535b50505080925050505b919050565b611a336113ab565b73ffffffffffffffffffffffffffffffffffffffff16611a51610d5e565b73ffffffffffffffffffffffffffffffffffffffff1614611aa7576040517f08c379a0000000000000000000000000000000000000000000000000000000008152600401611a9e906144a1565b60405180910390fd5b565b60006002600083815260200190815260200160002060009054906101000a900473ffffffffffffffffffffffffffffffffffffffff169050919050565b6000600b60009054906101000a900473ffffffffffffffffffffffffffffffffffffffff16905081600b60006101000a81548173ffffffffffffffffffffffffffffffffffffffff021916908373ffffffffffffffffffffffffffffffffffffffff1602179055508173ffffffffffffffffffffffffffffffffffffffff168173ffffffffffffffffffffffffffffffffffffffff167f8be0079c531659141344cd1fd0a4f28419497f9722a3daafe3b4186f6b6457e060405160405180910390a35050565b8173ffffffffffffffffffffffffffffffffffffffff168373ffffffffffffffffffffffffffffffffffffffff1603611c1a576040517f08c379a0000000000000000000000000000000000000000000000000000000008152600401611c119061450d565b60405180910390fd5b80600560008573ffffffffffffffffffffffffffffffffffffffff1673ffffffffffffffffffffffffffffffffffffffff16815260200190815260200160002060008473ffffffffffffffffffffffffffffffffffffffff1673ffffffffffffffffffffffffffffffffffffffff16815260200190815260200160002060006101000a81548160ff0219169083151502179055508173ffffffffffffffffffffffffffffffffffffffff168373ffffffffffffffffffffffffffffffffffffffff167f17307eab39ab6107e8899845ad3d59bd9653f200f220920489ca2b5937696c3183604051611d0b9190612d3c565b60405180910390a3505050565b611d23848484611501565b611d2f84848484612152565b611d6e576040517f08c379a0000000000000000000000000000000000000000000000000000000008152600401611d659061459f565b60405180910390fd5b50505050565b6060611d7f82611360565b6000600a60008481526020019081526020016000208054611d9f90613391565b80601f0160208091040260200160405190810160405280929190818152602001828054611dcb90613391565b8015611e185780601f10611ded57610100808354040283529160200191611e18565b820191906000526020600020905b815481529060010190602001808311611dfb57829003601f168201915b505050505090506000611e296122d9565b90506000815103611e3e578192505050611e81565b600082511115611e73578082604051602001611e5b9291906145bf565b60405160208183030381529060405292505050611e81565b611e7c846122f0565b925050505b919050565b600081600001549050919050565b6000611ea0600c611e86565b9050611eac3382612358565b611eb68183612376565b611ec0600c6123e3565b5050565b60007f80ac58cd000000000000000000000000000000000000000000000000000000007bffffffffffffffffffffffffffffffffffffffffffffffffffffffff1916827bffffffffffffffffffffffffffffffffffffffffffffffffffffffff19161480611f8f57507f5b5e139f000000000000000000000000000000000000000000000000000000007bffffffffffffffffffffffffffffffffffffffffffffffffffffffff1916827bffffffffffffffffffffffffffffffffffffffffffffffffffffffff1916145b80611f9f5750611f9e826123f9565b5b9050919050565b60008073ffffffffffffffffffffffffffffffffffffffff16611fc883611aa9565b73ffffffffffffffffffffffffffffffffffffffff1614159050919050565b611ff384848484612463565b50505050565b50505050565b600080600090507a184f03e93ff9f4daa797ed6e38ed64bf6a1f010000000000000000831061205d577a184f03e93ff9f4daa797ed6e38ed64bf6a1f0100000000000000008381612053576120526143b3565b5b0492506040810190505b6d04ee2d6d415b85acef8100000000831061209a576d04ee2d6d415b85acef810000000083816120905761208f6143b3565b5b0492506020810190505b662386f26fc1000083106120c957662386f26fc1000083816120bf576120be6143b3565b5b0492506010810190505b6305f5e10083106120f2576305f5e10083816120e8576120e76143b3565b5b0492506008810190505b612710831061211757612710838161210d5761210c6143b3565b5b0492506004810190505b6064831061213a57606483816121305761212f6143b3565b5b0492506002810190505b600a8310612149576001810190505b80915050919050565b60006121738473ffffffffffffffffffffffffffffffffffffffff166125c1565b156122cc578373ffffffffffffffffffffffffffffffffffffffff1663150b7a0261219c6113ab565b8786866040518563ffffffff1660e01b81526004016121be9493929190614638565b6020604051808303816000875af19250505080156121fa57506040513d601f19601f820116820180604052508101906121f79190614699565b60015b61227c573d806000811461222a576040519150601f19603f3d011682016040523d82523d6000602084013e61222f565b606091505b506000815103612274576040517f08c379a000000000000000000000000000000000000000000000000000000000815260040161226b9061459f565b60405180910390fd5b805181602001fd5b63150b7a0260e01b7bffffffffffffffffffffffffffffffffffffffffffffffffffffffff1916817bffffffffffffffffffffffffffffffffffffffffffffffffffffffff1916149150506122d1565b600190505b949350505050565b606060405180602001604052806000815250905090565b60606122fb82611360565b60006123056122d9565b905060008151116123255760405180602001604052806000815250612350565b8061232f846117fa565b6040516020016123409291906145bf565b6040516020818303038152906040525b915050919050565b6123728282604051806020016040528060008152506125e4565b5050565b61237f82611fa6565b6123be576040517f08c379a00000000000000000000000000000000000000000000000000000000081526004016123b590614738565b60405180910390fd5b80600a600084815260200190815260200160002090816123de9190614904565b505050565b6001816000016000828254019250508190555050565b60007f01ffc9a7000000000000000000000000000000000000000000000000000000007bffffffffffffffffffffffffffffffffffffffffffffffffffffffff1916827bffffffffffffffffffffffffffffffffffffffffffffffffffffffff1916149050919050565b61246f8484848461263f565b60018111156124b3576040517f08c379a00000000000000000000000000000000000000000000000000000000081526004016124aa90614a48565b60405180910390fd5b6000829050600073ffffffffffffffffffffffffffffffffffffffff168573ffffffffffffffffffffffffffffffffffffffff16036124fa576124f581612765565b612539565b8373ffffffffffffffffffffffffffffffffffffffff168573ffffffffffffffffffffffffffffffffffffffff16146125385761253785826127ae565b5b5b600073ffffffffffffffffffffffffffffffffffffffff168473ffffffffffffffffffffffffffffffffffffffff160361257b576125768161291b565b6125ba565b8473ffffffffffffffffffffffffffffffffffffffff168473ffffffffffffffffffffffffffffffffffffffff16146125b9576125b884826129ec565b5b5b5050505050565b6000808273ffffffffffffffffffffffffffffffffffffffff163b119050919050565b6125ee8383612a6b565b6125fb6000848484612152565b61263a576040517f08c379a00000000000000000000000000000000000000000000000000000000081526004016126319061459f565b60405180910390fd5b505050565b600181111561275f57600073ffffffffffffffffffffffffffffffffffffffff168473ffffffffffffffffffffffffffffffffffffffff16146126d35780600360008673ffffffffffffffffffffffffffffffffffffffff1673ffffffffffffffffffffffffffffffffffffffff16815260200190815260200160002060008282546126cb9190614a68565b925050819055505b600073ffffffffffffffffffffffffffffffffffffffff168373ffffffffffffffffffffffffffffffffffffffff161461275e5780600360008573ffffffffffffffffffffffffffffffffffffffff1673ffffffffffffffffffffffffffffffffffffffff16815260200190815260200160002060008282546127569190614137565b925050819055505b5b50505050565b6008805490506009600083815260200190815260200160002081905550600881908060018154018082558091505060019003906000526020600020016000909190919091505550565b600060016127bb84610bda565b6127c59190614a68565b90506000600760008481526020019081526020016000205490508181146128aa576000600660008673ffffffffffffffffffffffffffffffffffffffff1673ffffffffffffffffffffffffffffffffffffffff168152602001908152602001600020600084815260200190815260200160002054905080600660008773ffffffffffffffffffffffffffffffffffffffff1673ffffffffffffffffffffffffffffffffffffffff168152602001908152602001600020600084815260200190815260200160002081905550816007600083815260200190815260200160002081905550505b6007600084815260200190815260200160002060009055600660008573ffffffffffffffffffffffffffffffffffffffff1673ffffffffffffffffffffffffffffffffffffffff16815260200190815260200160002060008381526020019081526020016000206000905550505050565b6000600160088054905061292f9190614a68565b905060006009600084815260200190815260200160002054905060006008838154811061295f5761295e613ebb565b5b90600052602060002001549050806008838154811061298157612980613ebb565b5b9060005260206000200181905550816009600083815260200190815260200160002081905550600960008581526020019081526020016000206000905560088054806129d0576129cf614a9c565b5b6001900381819060005260206000200160009055905550505050565b60006129f783610bda565b905081600660008573ffffffffffffffffffffffffffffffffffffffff1673ffffffffffffffffffffffffffffffffffffffff168152602001908152602001600020600083815260200190815260200160002081905550806007600084815260200190815260200160002081905550505050565b600073ffffffffffffffffffffffffffffffffffffffff168273ffffffffffffffffffffffffffffffffffffffff1603612ada576040517f08c379a0000000000000000000000000000000000000000000000000000000008152600401612ad190614b17565b60405180910390fd5b612ae381611fa6565b15612b23576040517f08c379a0000000000000000000000000000000000000000000000000000000008152600401612b1a90614b83565b60405180910390fd5b612b31600083836001611fe7565b612b3a81611fa6565b15612b7a576040517f08c379a0000000000000000000000000000000000000000000000000000000008152600401612b7190614b83565b60405180910390fd5b6001600360008473ffffffffffffffffffffffffffffffffffffffff1673ffffffffffffffffffffffffffffffffffffffff16815260200190815260200160002060008282540192505081905550816002600083815260200190815260200160002060006101000a81548173ffffffffffffffffffffffffffffffffffffffff021916908373ffffffffffffffffffffffffffffffffffffffff160217905550808273ffffffffffffffffffffffffffffffffffffffff16600073ffffffffffffffffffffffffffffffffffffffff167fddf252ad1be2c89b69c2b068fc378daa952ba7f163c4a11628f55a4df523b3ef60405160405180910390a4612c84600083836001611ff9565b5050565b6000604051905090565b600080fd5b600080fd5b60007fffffffff0000000000000000000000000000000000000000000000000000000082169050919050565b612cd181612c9c565b8114612cdc57600080fd5b50565b600081359050612cee81612cc8565b92915050565b600060208284031215612d0a57612d09612c92565b5b6000612d1884828501612cdf565b91505092915050565b60008115159050919050565b612d3681612d21565b82525050565b6000602082019050612d516000830184612d2d565b92915050565b600081519050919050565b600082825260208201905092915050565b60005b83811015612d91578082015181840152602081019050612d76565b60008484015250505050565b6000601f19601f8301169050919050565b6000612db982612d57565b612dc38185612d62565b9350612dd3818560208601612d73565b612ddc81612d9d565b840191505092915050565b60006020820190508181036000830152612e018184612dae565b905092915050565b6000819050919050565b612e1c81612e09565b8114612e2757600080fd5b50565b600081359050612e3981612e13565b92915050565b600060208284031215612e5557612e54612c92565b5b6000612e6384828501612e2a565b91505092915050565b600073ffffffffffffffffffffffffffffffffffffffff82169050919050565b6000612e9782612e6c565b9050919050565b612ea781612e8c565b82525050565b6000602082019050612ec26000830184612e9e565b92915050565b612ed181612e8c565b8114612edc57600080fd5b50565b600081359050612eee81612ec8565b92915050565b60008060408385031215612f0b57612f0a612c92565b5b6000612f1985828601612edf565b9250506020612f2a85828601612e2a565b9150509250929050565b612f3d81612e09565b82525050565b6000602082019050612f586000830184612f34565b92915050565b600080600060608486031215612f7757612f76612c92565b5b6000612f8586828701612edf565b9350506020612f9686828701612edf565b9250506040612fa786828701612e2a565b9150509250925092565b60008060408385031215612fc857612fc7612c92565b5b6000612fd685828601612e2a565b9250506020612fe785828601612e2a565b9150509250929050565b60006020828403121561300757613006612c92565b5b600061301584828501612edf565b91505092915050565b600081519050919050565b600082825260208201905092915050565b6000819050602082019050919050565b61305381612e09565b82525050565b6000613065838361304a565b60208301905092915050565b6000602082019050919050565b60006130898261301e565b6130938185613029565b935061309e8361303a565b8060005b838110156130cf5781516130b68882613059565b97506130c183613071565b9250506001810190506130a2565b5085935050505092915050565b600060208201905081810360008301526130f6818461307e565b905092915050565b61310781612d21565b811461311257600080fd5b50565b600081359050613124816130fe565b92915050565b6000806040838503121561314157613140612c92565b5b600061314f85828601612edf565b925050602061316085828601613115565b9150509250929050565b600080fd5b600080fd5b7f4e487b7100000000000000000000000000000000000000000000000000000000600052604160045260246000fd5b6131ac82612d9d565b810181811067ffffffffffffffff821117156131cb576131ca613174565b5b80604052505050565b60006131de612c88565b90506131ea82826131a3565b919050565b600067ffffffffffffffff82111561320a57613209613174565b5b61321382612d9d565b9050602081019050919050565b82818337600083830152505050565b600061324261323d846131ef565b6131d4565b90508281526020810184848401111561325e5761325d61316f565b5b613269848285613220565b509392505050565b600082601f8301126132865761328561316a565b5b813561329684826020860161322f565b91505092915050565b600080600080608085870312156132b9576132b8612c92565b5b60006132c787828801612edf565b94505060206132d887828801612edf565b93505060406132e987828801612e2a565b925050606085013567ffffffffffffffff81111561330a57613309612c97565b5b61331687828801613271565b91505092959194509250565b6000806040838503121561333957613338612c92565b5b600061334785828601612edf565b925050602061335885828601612edf565b9150509250929050565b7f4e487b7100000000000000000000000000000000000000000000000000000000600052602260045260246000fd5b600060028204905060018216806133a957607f821691505b6020821081036133bc576133bb613362565b5b50919050565b7f4552433732313a20617070726f76616c20746f2063757272656e74206f776e6560008201527f7200000000000000000000000000000000000000000000000000000000000000602082015250565b600061341e602183612d62565b9150613429826133c2565b604082019050919050565b6000602082019050818103600083015261344d81613411565b9050919050565b7f4552433732313a20617070726f76652063616c6c6572206973206e6f7420746f60008201527f6b656e206f776e6572206f7220617070726f76656420666f7220616c6c000000602082015250565b60006134b0603d83612d62565b91506134bb82613454565b604082019050919050565b600060208201905081810360008301526134df816134a3565b9050919050565b7f4552433732313a2063616c6c6572206973206e6f7420746f6b656e206f776e6560008201527f72206f7220617070726f76656400000000000000000000000000000000000000602082015250565b6000613542602d83612d62565b915061354d826134e6565b604082019050919050565b6000602082019050818103600083015261357181613535565b9050919050565b7f455243373231456e756d657261626c653a206f776e657220696e646578206f7560008201527f74206f6620626f756e6473000000000000000000000000000000000000000000602082015250565b60006135d4602b83612d62565b91506135df82613578565b604082019050919050565b60006020820190508181036000830152613603816135c7565b9050919050565b600081905092915050565b7f3c73766720786d6c6e733d27687474703a2f2f7777772e77332e6f72672f323060008201527f30302f73766727207072657365727665417370656374526174696f3d27784d6960208201527f6e794d696e206d656574272076696577426f783d27302030203335302033353060408201527f273e000000000000000000000000000000000000000000000000000000000000606082015250565b60006136bd60628361360a565b91506136c882613615565b606282019050919050565b7f3c7374796c653e2e62617365207b2066696c6c3a2077686974653b20666f6e7460008201527f2d66616d696c793a2073657269663b20666f6e742d73697a653a20323570783b60208201527f207d3c2f7374796c653e00000000000000000000000000000000000000000000604082015250565b6000613755604a8361360a565b9150613760826136d3565b604a82019050919050565b7f3c726563742077696474683d273130302527206865696768743d27313030252760008201527f2066696c6c3d27626c756527202f3e0000000000000000000000000000000000602082015250565b60006137c7602f8361360a565b91506137d28261376b565b602f82019050919050565b7f3c7465787420783d273530252720793d273430252720636c6173733d2762617360008201527f652720646f6d696e616e742d626173656c696e653d276d6964646c652720746560208201527f78742d616e63686f723d276d6964646c65273e00000000000000000000000000604082015250565b600061385f60538361360a565b915061386a826137dd565b605382019050919050565b7f3c747370616e20793d273430252720783d27353025273e416c6368656d6f6e2060008201527f2300000000000000000000000000000000000000000000000000000000000000602082015250565b60006138d160218361360a565b91506138dc82613875565b602182019050919050565b60006138f282612d57565b6138fc818561360a565b935061390c818560208601612d73565b80840191505092915050565b7f3c2f747370616e3e000000000000000000000000000000000000000000000000600082015250565b600061394e60088361360a565b915061395982613918565b600882019050919050565b7f3c747370616e20793d273530252720783d27353025273e47656e65726174696f60008201527f6e20000000000000000000000000000000000000000000000000000000000000602082015250565b60006139c060228361360a565b91506139cb82613964565b602282019050919050565b7f3c2f747370616e3e3c2f746578743e3c2f7376673e0000000000000000000000600082015250565b6000613a0c60158361360a565b9150613a17826139d6565b601582019050919050565b6000613a2d826136b0565b9150613a3882613748565b9150613a43826137ba565b9150613a4e82613852565b9150613a59826138c4565b9150613a6582856138e7565b9150613a7082613941565b9150613a7b826139b3565b9150613a8782846138e7565b9150613a92826139ff565b91508190509392505050565b7f7b226e616d65223a2022416c6368656d6f6e2023000000000000000000000000600082015250565b6000613ad460148361360a565b9150613adf82613a9e565b601482019050919050565b7f222c20226465736372697074696f6e223a2022416e20696e2d67616d65206d6f60008201527f6e73746572222c2022696d616765223a2022646174613a696d6167652f73766760208201527f2b786d6c3b6261736536342c0000000000000000000000000000000000000000604082015250565b6000613b6c604c8361360a565b9150613b7782613aea565b604c82019050919050565b7f222c202261747472696275746573223a205b7b2274726169745f74797065223a60008201527f202247656e65726174696f6e222c202276616c7565223a202200000000000000602082015250565b6000613bde60398361360a565b9150613be982613b82565b603982019050919050565b7f227d5d7d00000000000000000000000000000000000000000000000000000000600082015250565b6000613c2a60048361360a565b9150613c3582613bf4565b600482019050919050565b6000613c4b82613ac7565b9150613c5782866138e7565b9150613c6282613b5f565b9150613c6e82856138e7565b9150613c7982613bd1565b9150613c8582846138e7565b9150613c9082613c1d565b9150819050949350505050565b7f646174613a6170706c69636174696f6e2f6a736f6e3b6261736536342c000000600082015250565b6000613cd3601d8361360a565b9150613cde82613c9d565b601d82019050919050565b6000613cf482613cc6565b9150613d0082846138e7565b915081905092915050565b7f4e6f206574686572206c65667420746f20776974686472617700000000000000600082015250565b6000613d41601983612d62565b9150613d4c82613d0b565b602082019050919050565b60006020820190508181036000830152613d7081613d34565b9050919050565b600081905092915050565b50565b6000613d92600083613d77565b9150613d9d82613d82565b600082019050919050565b6000613db382613d85565b9150819050919050565b7f5472616e73666572206661696c65642e00000000000000000000000000000000600082015250565b6000613df3601083612d62565b9150613dfe82613dbd565b602082019050919050565b60006020820190508181036000830152613e2281613de6565b9050919050565b7f455243373231456e756d657261626c653a20676c6f62616c20696e646578206f60008201527f7574206f6620626f756e64730000000000000000000000000000000000000000602082015250565b6000613e85602c83612d62565b9150613e9082613e29565b604082019050919050565b60006020820190508181036000830152613eb481613e78565b9050919050565b7f4e487b7100000000000000000000000000000000000000000000000000000000600052603260045260246000fd5b7f4552433732313a20696e76616c696420746f6b656e2049440000000000000000600082015250565b6000613f20601883612d62565b9150613f2b82613eea565b602082019050919050565b60006020820190508181036000830152613f4f81613f13565b9050919050565b7f4552433732313a2061646472657373207a65726f206973206e6f74206120766160008201527f6c6964206f776e65720000000000000000000000000000000000000000000000602082015250565b6000613fb2602983612d62565b9150613fbd82613f56565b604082019050919050565b60006020820190508181036000830152613fe181613fa5565b9050919050565b7f4e487b7100000000000000000000000000000000000000000000000000000000600052601160045260246000fd5b600061402282612e09565b91507fffffffffffffffffffffffffffffffffffffffffffffffffffffffffffffffff820361405457614053613fe8565b5b600182019050919050565b7f506172656e7473206d75737420626520646966666572656e7400000000000000600082015250565b6000614095601983612d62565b91506140a08261405f565b602082019050919050565b600060208201905081810360008301526140c481614088565b9050919050565b7f53656e64657220646f65736e2774206f776e204e465473000000000000000000600082015250565b6000614101601783612d62565b915061410c826140cb565b602082019050919050565b60006020820190508181036000830152614130816140f4565b9050919050565b600061414282612e09565b915061414d83612e09565b925082820190508082111561416557614164613fe8565b5b92915050565b7f4e6f7420656e6f75676820657468657220746f2070757263686173652067656e60008201527f65736973204e46542e0000000000000000000000000000000000000000000000602082015250565b60006141c7602983612d62565b91506141d28261416b565b604082019050919050565b600060208201905081810360008301526141f6816141ba565b9050919050565b7f4f776e61626c653a206e6577206f776e657220697320746865207a65726f206160008201527f6464726573730000000000000000000000000000000000000000000000000000602082015250565b6000614259602683612d62565b9150614264826141fd565b604082019050919050565b600060208201905081810360008301526142888161424c565b9050919050565b7f4552433732313a207472616e736665722066726f6d20696e636f72726563742060008201527f6f776e6572000000000000000000000000000000000000000000000000000000602082015250565b60006142eb602583612d62565b91506142f68261428f565b604082019050919050565b6000602082019050818103600083015261431a816142de565b9050919050565b7f4552433732313a207472616e7366657220746f20746865207a65726f2061646460008201527f7265737300000000000000000000000000000000000000000000000000000000602082015250565b600061437d602483612d62565b915061438882614321565b604082019050919050565b600060208201905081810360008301526143ac81614370565b9050919050565b7f4e487b7100000000000000000000000000000000000000000000000000000000600052601260045260246000fd5b60006143ed82612e09565b91506143f883612e09565b925082614408576144076143b3565b5b828204905092915050565b600061441e82612e09565b915061442983612e09565b925082820261443781612e09565b9150828204841483151761444e5761444d613fe8565b5b5092915050565b7f4f776e61626c653a2063616c6c6572206973206e6f7420746865206f776e6572600082015250565b600061448b602083612d62565b915061449682614455565b602082019050919050565b600060208201905081810360008301526144ba8161447e565b9050919050565b7f4552433732313a20617070726f766520746f2063616c6c657200000000000000600082015250565b60006144f7601983612d62565b9150614502826144c1565b602082019050919050565b60006020820190508181036000830152614526816144ea565b9050919050565b7f4552433732313a207472616e7366657220746f206e6f6e20455243373231526560008201527f63656976657220696d706c656d656e7465720000000000000000000000000000602082015250565b6000614589603283612d62565b91506145948261452d565b604082019050919050565b600060208201905081810360008301526145b88161457c565b9050919050565b60006145cb82856138e7565b91506145d782846138e7565b91508190509392505050565b600081519050919050565b600082825260208201905092915050565b600061460a826145e3565b61461481856145ee565b9350614624818560208601612d73565b61462d81612d9d565b840191505092915050565b600060808201905061464d6000830187612e9e565b61465a6020830186612e9e565b6146676040830185612f34565b818103606083015261467981846145ff565b905095945050505050565b60008151905061469381612cc8565b92915050565b6000602082840312156146af576146ae612c92565b5b60006146bd84828501614684565b91505092915050565b7f45524337323155524953746f726167653a2055524920736574206f66206e6f6e60008201527f6578697374656e7420746f6b656e000000000000000000000000000000000000602082015250565b6000614722602e83612d62565b915061472d826146c6565b604082019050919050565b6000602082019050818103600083015261475181614715565b9050919050565b60008190508160005260206000209050919050565b60006020601f8301049050919050565b600082821b905092915050565b6000600883026147ba7fffffffffffffffffffffffffffffffffffffffffffffffffffffffffffffffff8261477d565b6147c4868361477d565b95508019841693508086168417925050509392505050565b6000819050919050565b60006148016147fc6147f784612e09565b6147dc565b612e09565b9050919050565b6000819050919050565b61481b836147e6565b61482f61482782614808565b84845461478a565b825550505050565b600090565b614844614837565b61484f818484614812565b505050565b5b818110156148735761486860008261483c565b600181019050614855565b5050565b601f8211156148b85761488981614758565b6148928461476d565b810160208510156148a1578190505b6148b56148ad8561476d565b830182614854565b50505b505050565b600082821c905092915050565b60006148db600019846008026148bd565b1980831691505092915050565b60006148f483836148ca565b9150826002028217905092915050565b61490d82612d57565b67ffffffffffffffff81111561492657614925613174565b5b6149308254613391565b61493b828285614877565b600060209050601f83116001811461496e576000841561495c578287015190505b61496685826148e8565b8655506149ce565b601f19841661497c86614758565b60005b828110156149a45784890151825560018201915060208501945060208101905061497f565b868310156149c157848901516149bd601f8916826148ca565b8355505b6001600288020188555050505b505050505050565b7f455243373231456e756d657261626c653a20636f6e736563757469766520747260008201527f616e7366657273206e6f7420737570706f727465640000000000000000000000602082015250565b6000614a32603583612d62565b9150614a3d826149d6565b604082019050919050565b60006020820190508181036000830152614a6181614a25565b9050919050565b6000614a7382612e09565b9150614a7e83612e09565b9250828203905081811115614a9657614a95613fe8565b5b92915050565b7f4e487b7100000000000000000000000000000000000000000000000000000000600052603160045260246000fd5b7f4552433732313a206d696e7420746f20746865207a65726f2061646472657373600082015250565b6000614b01602083612d62565b9150614b0c82614acb565b602082019050919050565b60006020820190508181036000830152614b3081614af4565b9050919050565b7f4552433732313a20746f6b656e20616c7265616479206d696e74656400000000600082015250565b6000614b6d601c83612d62565b9150614b7882614b37565b602082019050919050565b60006020820190508181036000830152614b9c81614b60565b905091905056fe4142434445464748494a4b4c4d4e4f505152535455565758595a6162636465666768696a6b6c6d6e6f707172737475767778797a303132333435363738392b2fa26469706673582212208419406dbbb6268a02930d3c8e833290669495a7f40adf228ddcad708ac5e25264736f6c63430008110033",
  "linkReferences": {},
  "deployedLinkReferences": {}
}